:1000000071C000008EC000008CC000008AC00000DB
:1000100088C0000086C0000084C0000082C00000CC
:1000200080C000007EC000007CC000007AC00000DC
:1000300078C0000076C0000074C0000072C00000EC
:1000400070C000006EC000006CC000006AC00000FC
:1000500068C00000ACC1000064C0000062C00000C5
:1000600060C000005EC000005CC000005AC000001C
:1000700058C0000056C0000054C0000052C000002C
:1000800050C000004EC000004CC000004AC000003C
:1000900048C0000046C0000044C0000042C000004C
:1000A00040C000003EC000003CC000003AC000005C
:1000B00038C0000036C0000034C0000032C000006C
:1000C00030C000002EC000002CC000002AC000007C
:1000D00028C0000026C0000024C0000022C000008C
:1000E00020C0000011241FBECFEFD1E2DEBFCDBF84
:1000F00000E00CBF12E0A0E0B2E0E2EEF8E000E0C9
:100100000BBF02C007900D92A436B107D9F722E0C9
:10011000A4E6B2E001C01D92A037B207E1F717D103
:10012000DEC36ECF8CE0809307018BE080930801E3
:10013000089582E08093C00088E18093C10086E04A
:100140008093C20087E690E09093C5008093C4003E
:10015000089582E084BD93E095BD16BC99EF97BDEC
:1001600080936E0078940895E0ECF0E0808188231D
:10017000ECF78091C6000895E0ECF0E0908195FFE7
:10018000FDCF8093C6000895CF93DF93EC01888163
:10019000882329F02196F0DF89918111FCCFDF912E
:1001A000CF9108950F931F93CF93DF93FC019B0191
:1001B000C0E0D0E0042F10E002C0EC01FD01C90155
:1001C000B80179D3262F372F8A30910510F0895C3A
:1001D00001C0805DDF0111968083CE01019621155B
:1001E000310559F71182A81BB90B209799F0FD0131
:1001F000A80FB91F80E090E020813E91231711F0F5
:1002000030832C93019631969E01281B390B82175F
:10021000930790F3DF91CF911F910F910895CF92A3
:10022000DF92EF92FF920F931F93CF93DF93CDB79F
:10023000DEB764970FB6F894DEBF0FBECDBF8091D6
:10024000060180FD75C080916F02811171C081E04F
:1002500080936F0210926D0210926C0280910002E6
:10026000813089F4E8E0F1E08081877F808310921B
:1002700000028AE090E0909369028093680281E036
:1002800092E082DF55C08091000281113DC082E082
:10029000809300026091660270916702009168028B
:1002A0001091690280E090E015D220E030E040E259
:1002B00050E49ED220E030E04AE754E477D120E0D9
:1002C00030E040E251E494D26B017C01B80180E05F
:1002D00090E000D29B01AC01C701B60103D1CED1A1
:1002E000709369026093680260916802709169027C
:1002F0004AE0CE01019656DF80E192E045DFCE0173
:10030000019642DF31DF14C080910002823081F417
:1003100081E080930002E8E0F1E0908188E08927A5
:1003200080838AE192E030DF1092690210926802C5
:1003300064960FB6F894DEBF0FBECDBFDF91CF91AC
:100340001F910F91FF90EF90DF90CF900895EADE1C
:10035000F0DEFFDE82E292E017DFC6E0D1E011E0DE
:100360005EDF809100028111FBCF888181FDF8CF93
:1003700080916E028111F4CF10936E0210926D0283
:1003800010926C0210926B0210926A021092650237
:100390001092640285E392E0F7DE8091660290910C
:1003A000670201969093670280936602D9CF1F92ED
:1003B0000F920FB60F9211240BB60F922F933F930B
:1003C0004F935F936F937F938F939F93AF93BF935D
:1003D000EF93FF9380916C0290916D020196909340
:1003E0006D0280936C0280916A0290916B0201967B
:1003F00090936B0280936A0280916A0290916B02E3
:10040000883C910561F58091060181FF28C08091AB
:100410000002811124C080916402909165020196CE
:10042000909365028093640210926B0210926A02AC
:1004300080916402909165028C32914081F48CE34A
:1004400092E0A2DE809166029091670205969093F9
:100450006702809366021092650210926402809196
:100460006F02882349F080916C0290916D02883C64
:10047000910511F410926F0280916E02882361F051
:1004800080916C0290916D02C39730F4E8E0F1E046
:1004900080818460808305C0E8E0F1E080818B7F0B
:1004A000808380916E02882349F080916C02909144
:1004B0006D02883C910511F410926E02FF91EF914C
:1004C000BF91AF919F918F917F916F915F914F916C
:1004D0003F912F910F900BBE0F900FBE0F901F906A
:1004E00018955058BB27AA270ED048C139D130F0F3
:1004F0003ED120F031F49F3F11F41EF42EC10EF4D2
:10050000E095E7FB24C1E92F4AD180F3BA176207CF
:1005100073078407950718F071F49EF562C10EF415
:10052000E0950B2EBA2FA02D0B01B90190010C0103
:10053000CA01A0011124FF27591B99F0593F50F41B
:10054000503E68F11A16F040A22F232F342F442773
:10055000585FF3CF469537952795A795F04053956B
:10056000C9F77EF41F16BA0B620B730B840BBAF03B
:100570009150A1F0FF0FBB1F661F771F881FC2F7A6
:100580000EC0BA0F621F731F841F48F487957795BA
:100590006795B795F7959E3F08F0B3CF9395880F71
:1005A00008F09927EE0F9795879508950CD0E6C02F
:1005B000DED040F0D5D030F021F45F3F19F0C7C055
:1005C000511110C1CAC0EBD098F39923C9F3552338
:1005D000B1F3951B550BBB27AA2762177307840736
:1005E00038F09F5F5F4F220F331F441FAA1FA9F3EC
:1005F00033D00E2E3AF0E0E830D091505040E695DE
:10060000001CCAF729D0FE2F27D0660F771F881F3E
:10061000BB1F261737074807AB07B0E809F0BB0B2D
:10062000802DBF01FF2793585F4F2AF09E3F510551
:1006300068F08DC0D7C05F3FECF3983EDCF3869541
:1006400077956795B795F7959F5FC9F7880F911DC7
:100650009695879597F90895E1E0660F771F881FB3
:10066000BB1F621773078407BA0720F0621B730B66
:10067000840BBA0BEE1F88F7E095089598D088F0A8
:100680009F5790F0B92F9927B751A0F0D1F0660F7E
:10069000771F881F991F1AF0BA95C9F712C0B13099
:1006A00081F09FD0B1E008959CC0672F782F8827F4
:1006B000B85F39F0B93FCCF3869577956795B395D8
:1006C000D9F73EF490958095709561957F4F8F4F47
:1006D0009F4F0895E89409C097FB3EF4909580954C
:1006E000709561957F4F8F4F9F4F9923A9F0F92FF8
:1006F00096E9BB279395F695879577956795B79576
:10070000F111F8CFFAF4BB0F11F460FF1BC06F5F5B
:100710007F4F8F4F9F4F16C0882311F096E911C06D
:10072000772321F09EE8872F762F05C0662371F08E
:1007300096E8862F70E060E02AF09A95660F771FA2
:10074000881FDAF7880F9695879597F9089597F996
:100750009F6780E870E060E008959FEF80EC089567
:1007600000240A9416161706180609060895002490
:100770000A9412161306140605060895092E03940A
:10078000000C11F4882352F0BB0F40F4BF2B11F47E
:1007900060FF04C06F5F7F4F8F4F9F4F089557FDDD
:1007A0009058440F551F59F05F3F71F04795880FDF
:1007B00097FB991F61F09F3F79F087950895121676
:1007C00013061406551FF2CF4695F1DF08C0161622
:1007D00017061806991FF1CF8695710561050894D3
:1007E0000895E894BB2766277727CB0197F90895EA
:1007F0000BD0C4CFB5DF28F0BADF18F0952309F08D
:10080000A6CFABCF1124EECFCADFA0F3959FD1F3D3
:10081000950F50E0551F629FF001729FBB27F00DAE
:10082000B11D639FAA27F00DB11DAA1F649F662703
:10083000B00DA11D661F829F2227B00DA11D621F52
:10084000739FB00DA11D621F839FA00D611D221F0C
:10085000749F3327A00D611D231F849F600D211DF0
:10086000822F762F6A2F11249F5750408AF0E1F093
:1008700088234AF0EE0FFF1FBB1F661F771F881FDC
:1008800091505040A9F79E3F510570F060CFAACF1C
:100890005F3FECF3983EDCF3869577956795B795C7
:1008A000F795E7959F5FC1F7FE2B880F911D9695F1
:1008B000879597F90895AA1BBB1B51E107C0AA1F92
:1008C000BB1FA617B70710F0A61BB70B881F991FF1
:1008D0005A95A9F780959095BC01CD010895F8949B
:0208E000FFCF48
:1008E200010A0D54415849204F43555041444F008D
:1008F2000A0D50414741523A20000A0D4C494252DA
:100902004500494E4943494F20544158492C204CF7
:1009120049425245000A0D2B322E35000A0D434141
:1009220052524F2050415241444F2C20736520694E
:100932006E6372656D656E746172612031322E353F
:040942006D7473005D
:00000001FF
