:1000000071C000008EC000008CC000008AC00000DB
:1000100088C0000086C0000084C0000082C00000CC
:1000200080C000007EC000007CC000007AC00000DC
:1000300078C0000076C0000074C0000072C00000EC
:1000400070C000006EC000006CC000006AC00000FC
:1000500068C00000E2C0000064C0000062C0000090
:1000600060C000005EC000005CC000005AC000001C
:1000700058C0000056C0000054C0000052C000002C
:1000800050C000004EC000004CC000004AC000003C
:1000900048C0000046C0000044C0000042C000004C
:1000A00040C000003EC000003CC000003AC000005C
:1000B00038C0000036C0000034C0000032C000006C
:1000C00030C000002EC000002CC000002AC000007C
:1000D00028C0000026C0000024C0000022C000008C
:1000E00020C0000011241FBECFEFD1E2DEBFCDBF84
:1000F00000E00CBF12E0A0E0B2E0E4E5F2E000E0D6
:100100000BBF02C007900D92A433B107D9F722E0CC
:10011000A4E3B2E001C01D92A633B207E1F73AD0E2
:1001200097C06ECF8CE0809307018BE0809308012D
:10013000089582E08093C00088E18093C10086E04A
:100140008093C20087E690E09093C5008093C4003E
:10015000089582E084BD93E095BD16BC99EF97BDEC
:1001600080936E0078940895E0ECF0E0908195FF24
:10017000FDCF8093C6000895CF93DF93EC01888173
:10018000882329F02196F0DF89918111FCCFDF913E
:10019000CF910895C7DFCDDFDCDF81E092E0ECDFB7
:1001A000C6E0D1E011E06894EE24E3F8FF24F39474
:1001B0006894DD24D3F802E0888180FDFDCF809132
:1001C00035028111F9CF10933502109234028091DB
:1001D0000002813051F4F7018081877F8083109283
:1001E000000284E192E0C8DFE7CF80910002811134
:1001F00006C00093000283E292E0BEDFDDCF809173
:1002000000028230C9F610930002F70180818D252B
:1002100080838BE292E0B0DFCFCF1F920F920FB6B8
:100220000F9211248F93809134028F5F8093340258
:1002300080913502813031F480913402883C11F490
:10024000109235028F910F900FBE0F901F9018954E
:04025000F894FFCF50
:1002540001494E4943494F20544158492C204C49A7
:10026400425245000A0D54415849204F43555041CC
:10027400444F000A0D5041474152000A0D4C494277
:0402840052450000DF
:00000001FF
